:100000000C9462000C947F000C947F000C947F0091
:100010000C947F000C947F000C947F000C949D0343
:100020000C947F000C947F000C947F000C947F0054
:100030000C947F000C947F000C947F000C947F0044
:100040000C9453030C947F000C947F000C947F005D
:100050000C947F000C947F000C947F000C947F0024
:100060000C947F000C947F00000000002300260009
:10007000290000000008000201000003040700003E
:1000800000000000000000000000240027002A00FB
:10009000010204081020408001020408102001021F
:1000A0000408102000000000250028002B00040494
:1000B0000404040404040202020202020303030310
:1000C0000303020011241FBECFEFD8E0DEBFCDBF77
:1000D00011E0A0E0B1E0E8E0FAE002C005900D9286
:1000E000A230B107D9F721E0A2E0B1E001C01D9232
:1000F000AC31B207E1F70E9441040C9402050C9464
:100100000000833081F028F4813099F08230A1F032
:1001100008958730A9F08830B9F08430D1F4809107
:1001200080008F7D03C0809180008F778093800056
:10013000089584B58F7702C084B58F7D84BD0895FE
:100140008091B0008F7703C08091B0008F7D809345
:10015000B0000895CF93DF9390E0FC01E057FF4F8C
:100160002491FC01E255FF4F8491882361F190E0D6
:10017000880F991FFC01EA57FF4FC591D491FC01EC
:10018000EC55FF4FA591B491611109C09FB7F89448
:100190008881209582238883EC912E230BC06230C6
:1001A00061F49FB7F8948881322F30958323888338
:1001B000EC912E2B2C939FBF06C08FB7F894E8814B
:1001C0002E2B28838FBFDF91CF9108958F929F921E
:1001D000AF92BF92CF92DF92EF92FF921F93CF9395
:1001E000DF93EC0180910001883021F08F3F09F00E
:1001F000F1C104C0E2ECF0E014916FC088E080939C
:100200000001E2ECF0E014911F3F09F4E3C111306A
:1002100009F440C030F1123009F05FC01092B00014
:100220001092B1008091B00082608093B000809104
:10023000B10081608093B100E6EBF0E0E491F0E082
:10024000EE0FFF1FEC55FF4F8591949190930D0198
:1002500080930C01E8E9F0E0E491E0930B0112E0F7
:10026000B4C114BC15BC84B5826084BD85B5816001
:1002700085BDE6EBF0E0E491F0E0EE0FFF1FEC55FA
:10028000FF4F85919491E8E9F0E0E491E0930F014C
:1002900010E09BC11092800010928100809181003B
:1002A00088608093810080918100816080938100CB
:1002B000E6EBF0E0E491F0E0EE0FFF1FEC55FF4FAE
:1002C00085919491E8E9F0E0E491E0930E0161E01A
:1002D00088E00E94AA0011E0A5C017FD7BC161E083
:1002E00088E00E94AA00812F8D7F09F09BC06E01DB
:1002F000E12CF12C60E072E18AE790E0A701960121
:100300000E94C10449015A01BA01A9014150510991
:10031000610971094F3F51056105710509F008F444
:1003200045C060E472E48FE090E0A70196010E946E
:10033000C104BA01A9014150510961097109123082
:10034000E9F44F3F51056105710509F008F4DDC07E
:1003500060E970ED83E090E0A70196010E94C1047E
:10036000BA01A90141505109610971094F3F510575
:100370006105710509F020F583E04DC04F3F51053F
:1003800061057105A9F0A0F068E478EE81E090E0E5
:10039000A70196010E94C104BA01A9014150510967
:1003A00061097109112309F4E1C0D8C081E001C0DD
:1003B00082E0111130C095B5987F892B85BD69C049
:1003C00068E478EE81E090E0A70196010E94C10404
:1003D000BA01A90141505109610971094F3F510505
:1003E0006105710509F008F48EC064E274EF80E0E5
:1003F00090E0A70196010E94C104BA01A9014150F1
:100400005109610971094F3F51056105710511F0ED
:1004100008F07DC085E09091B100987F892B809392
:10042000B10031C06E01E12CF12C60E072E18AE78D
:1004300090E0A70196010E94C104BA01A9014150B0
:100440005109610971094115510581E0680771057C
:1004500080F068E478EE81E090E0A70196010E94C8
:10046000C104BA01A901415051096109710983E030
:1004700001C081E0113039F490918100987F892B7F
:100480008093810018C01130B1F0123049F1111180
:10049000A1C047BD8FEF9FEFDC01809318019093BF
:1004A0001901A0931A01B0931B0180916E00826024
:1004B00080936E008FC050938900409388008FEF27
:1004C0009FEFDC018093140190931501A093160116
:1004D000B093170180916F00826080936F007AC0A3
:1004E0004093B3008FEF9FEFDC0180931001909356
:1004F0001101A0931201B0931301809170008260EA
:100500008093700067C084E086CF82E084CF62E190
:100510007AE780E090E0A70196010E94C104BA0149
:10052000A90141505109610971094F3F5105610508
:10053000710591F088F0D501C4012AE0B595A79521
:10054000979587952A95D1F7AC01BD014150510986
:100550006109710987E05FCF86E05DCF4F3F5105AC
:100560006105710509F098F684E023CF4F3F5105EE
:100570006105710541F138F162E17AE780E090E0D0
:10058000A70196010E94C104BA01A9014150510975
:10059000610971094F3F51056105710591F088F0BE
:1005A000D501C4013AE0B595A795979587953A95F9
:1005B000D1F7AC01BD01415051096109710985E0D4
:1005C000FACE84E0F8CE83E0F6CE61E088E00E94C7
:1005D000AA008DCEDF91CF911F91FF90EF90DF9019
:1005E000CF90BF90AF909F908F9008953FB7F894B1
:1005F0008091070190910801A0910901B0910A0131
:1006000026B5A89B05C02F3F19F00196A11DB11D6D
:100610003FBFBA2FA92F982F8827820F911DA11DA8
:10062000B11DBC01CD0142E0660F771F881F991FE5
:100630004A95D1F708958F929F92AF92BF92CF9231
:10064000DF92EF92FF920E94F6024B015C0184EF71
:10065000C82EDD24D394E12CF12C0E94F602DC019B
:10066000CB0188199909AA09BB09883E9340A105C5
:10067000B10598F321E0C21AD108E108F10888EE2B
:10068000880E83E0981EA11CB11CC114D104E104A2
:10069000F10419F7FF90EF90DF90CF90BF90AF90EB
:1006A0009F908F9008951F920F920FB60F92112472
:1006B0002F933F938F939F93AF93BF9380910301A9
:1006C00090910401A0910501B091060130910201C1
:1006D00023E0230F2D3720F40196A11DB11D05C085
:1006E00026E8230F0296A11DB11D209302018093DD
:1006F000030190930401A0930501B093060180913A
:10070000070190910801A0910901B0910A01019699
:10071000A11DB11D8093070190930801A0930901C9
:10072000B0930A01BF91AF919F918F913F912F910B
:100730000F900FBE0F901F9018951F920F920FB63B
:100740000F9211242F933F934F935F936F937F9357
:100750008F939F93AF93BF93CF93DF93EF93FF93C9
:100760008091100190911101A0911201B09113019B
:10077000892B8A2B8B2B59F190910B01E0910C0165
:10078000F0910D01808189278083809110019091E3
:100790001101A0911201B0911301181619061A0641
:1007A0001B060CF05BC08091100190911101A0918B
:1007B0001201B09113010197A109B10980931001B1
:1007C00090931101A0931201B093130147C020919F
:1007D0000001E2ECF0E0E4918FEF80930001E13062
:1007E000B9F098F0E230C9F4809170008D7F809369
:1007F000700081E08093B0008091B100887F8460B8
:100800008093B1001092B30008C010926E0005C032
:1008100080916F008D7F80936F0030E0F901EE587A
:10082000FF4F8491F901E057FF4FD491F901E25550
:10083000FF4FC491CC2391F081110E948100EC2FD5
:10084000F0E0EE0FFF1FEC55FF4FA591B4919FB75D
:10085000F8948C91D095D823DC939FBFFF91EF91B2
:10086000DF91CF91BF91AF919F918F917F916F91C8
:100870005F914F913F912F910F900FBE0F901F905E
:100880001895789484B5826084BD84B5816084BDF8
:1008900085B5826085BD85B5816085BD80916E001E
:1008A000816080936E00109281008091810082604F
:1008B000809381008091810081608093810080918C
:1008C00080008160809380008091B100846080937B
:1008D000B1008091B00081608093B00080917A0077
:1008E000846080937A0080917A00826080937A009D
:1008F00080917A00816080937A0080917A0080688C
:1009000080937A001092C10061E088E00E94AA0002
:1009100062E089E00E94AA00CBE7D0E009E910E09C
:1009200097EBE92E90E0F92E20E0C22E20E0D22EA7
:10093000FE018491F801A490F701B490BB2071F0FE
:1009400081110E948100EB2DF0E0EE0FFF1FE859AE
:10095000FF4FA591B4918C918A2169F488EE93E0C0
:100960000E94E6000E941B0388EB9BE00E94E600C9
:100970000E941B03F3CFC114D104D1F20E940000E6
:10098000D7CF052E97FB1EF400940E94D80457FD84
:1009900007D00E94E00407FC03D04EF40C94D80466
:1009A00050954095309521953F4F4F4F5F4F08959B
:1009B00090958095709561957F4F8F4F9F4F0895CB
:1009C000A1E21A2EAA1BBB1BFD010DC0AA1FBB1F53
:1009D000EE1FFF1FA217B307E407F50720F0A21BC5
:1009E000B30BE40BF50B661F771F881F991F1A9432
:1009F00069F760957095809590959B01AC01BD015C
:080A0000CF010895F894FFCF27
:020A0800FF00ED
:00000001FF
