:100000000C9462000C948A000C948A000C948A0070
:100010000C948A000C948A000C948A000C948A0038
:100020000C948A000C948A000C948A000C948A0028
:100030000C948A000C948A000C948A000C948A0018
:100040000C941C030C948A000C948A000C948A0073
:100050000C948A000C948A000C948A000C948A00F8
:100060000C948A000C948A000000000024002700F1
:100070002A0000000000250028002B0000000000DE
:1000800023002600290004040404040404040202DA
:100090000202020203030303030301020408102007
:1000A0004080010204081020010204081020000012
:1000B0000008000201000003040700000000000027
:1000C0000000750511241FBECFEFD8E0DEBFCDBF05
:1000D00011E0A0E0B1E0E8E6FFE002C005900D927B
:1000E000A233B107D9F721E0A2E3B1E001C01D922C
:1000F000A935B207E1F710E0C2E6D0E004C02197CD
:10010000FE010E94A707C136D107C9F70E94660306
:100110000C94B2070C940000833081F028F48130F5
:1001200099F08230A1F008958730A9F08830B9F0B5
:100130008430D1F4809180008F7D03C08091800055
:100140008F7780938000089584B58F7702C084B53F
:100150008F7D84BD08958091B0008F7703C080911A
:10016000B0008F7D8093B0000895CF93DF93E8EBCC
:10017000F0E08491E4EAF0E0D491E0E9F0E0C491A9
:10018000CC2391F081110E948C00EC2FF0E0EE0F57
:10019000FF1FE458FF4FA591B491EC91ED2381E04E
:1001A00090E021F480E002C080E090E0DF91CF9108
:1001B00008951F93CF93DF93282F30E0F901E25584
:1001C000FF4F8491F901E656FF4FD491F901EA57A8
:1001D000FF4FC491CC23C1F0162F81110E948C00D7
:1001E000EC2FF0E0EE0FFF1FEE58FF4FA591B491FA
:1001F0009FB7F894111104C08C91D095D82302C0F8
:10020000EC91DE2BDC939FBFDF91CF911F9108957E
:10021000CF93DF9390E0FC01E656FF4F2491FC0161
:10022000EA57FF4F8491882361F190E0880F991F6E
:10023000FC01E859FF4FC591D491FC01EE58FF4FE6
:10024000A591B491611109C09FB7F8948881209558
:1002500082238883EC912E230BC0623061F49FB718
:10026000F8948881322F309583238883EC912E2B4C
:100270002C939FBF06C08FB7F894E8812E2B28835C
:100280008FBFDF91CF9108958E3008F08E50877028
:10029000806480937C0080917A00806480937A00EF
:1002A00080917A0086FDFCCF8091780020917900C2
:1002B00090E0922B08953FB7F89480913D01909182
:1002C0003E01A0913F01B091400126B5A89B05C019
:1002D0002F3F19F00196A11DB11D3FBFBA2FA92FC5
:1002E000982F8827820F911DA11DB11DBC01CD0142
:1002F00042E0660F771F881F991F4A95D1F708952E
:10030000CF92DF92EF92FF920F931F93CF93DF93E1
:100310006C017A018B01C0E0D0E0CE15DF0581F0E1
:10032000D8016D918D01D601ED91FC910190F08184
:10033000E02DC6010995892B11F02196EECF7E01A3
:10034000C701DF91CF911F910F91FF90EF90DF9048
:10035000CF900895CF93DF93EC0160E08E810E94EF
:10036000D90061E08E810E94D90060E08E810E94F8
:10037000D9008BE891E00197F1F7DF91CF910895D3
:10038000CF92DF92EF92FF920F931F93CF93DF9361
:100390006C017C0187E0E80EF11CC0E0D0E0062F84
:1003A00010E0B8010C2E02C0759567950A94E2F72B
:1003B0006170F70181917F010E94D9002196C430BC
:1003C000D10579F7C601DF91CF911F910F91FF9071
:1003D000EF90DF90CF900C94AA01CF92DF92EF9232
:1003E000FF920F931F93CF93DF93EC01F62E642FB0
:1003F0008C810E94D9008D818F3F19F060E00E94AE
:10040000D9008F850F2D10E084FF25C06E0187E095
:10041000C80ED11CE12CF12CB8010E2C02C0759530
:1004200067950A94E2F76170F60181916F010E946D
:10043000D900FFEFEF1AFF0A88E0E816F10461F730
:10044000CE01DF91CF911F910F91FF90EF90DF9040
:10045000CF900C94AA01B80184E0759567958A95B0
:10046000E1F7CE010E94C0016F2DCE01DF91CF9147
:100470001F910F91FF90EF90DF90CF900C94C001EF
:1004800040E0682F81E491E00C94ED01CF93DF937D
:10049000823028F0909150019860909350018093A1
:1004A00054011092550180E48093560180E18093BD
:1004B000570180E58093580161E0809145010E94D9
:1004C0000801809146018F3F19F061E00E94080108
:1004D00061E0809147010E940801C1E4D1E09E01E2
:1004E000215431408091500184FD03C084E090E0AC
:1004F00002C088E090E02196281739072CF461E0CB
:100500008E810E940801EBCF8BE39DE00197F1F70C
:1005100060E0809145010E94D90060E08091470130
:100520000E94D900809146018F3F19F060E00E943F
:10053000D9008091500184FD20C063E081E491E006
:100540000E94C001CBE4D6E4CE010197F1F763E04D
:1005500081E491E00E94C0012197F1F763E081E41A
:1005600091E00E94C00183E592E00197F1F762E01B
:1005700081E491E00E94C00115C080620E944002A7
:100580008BE496E40197F1F78091500180620E941C
:10059000400283E592E00197F1F78091500180627B
:1005A0000E9440028091500180620E94400284E0DB
:1005B000809351018CE00E94400281E00E94400241
:1005C0008BE39FE10197F1F782E08093520186E08F
:1005D000DF91CF910C944002643008F063E0909179
:1005E0005401691710F06FEF690FE62FF0E0EF5B31
:1005F000FE4F9489890F80680C94400241E00E946C
:10060000ED0181E090E00895089580E090E0089584
:10061000009769F0FC0101900020E9F73197AF01E4
:10062000481B590BBC0181E491E00C94800180E0EF
:1006300090E008950E94AD071F920F920FB60F929F
:1006400011242F933F938F939F93AF93BF938091E8
:10065000390190913A01A0913B01B0913C01309158
:10066000380123E0230F2D3720F40196A11DB11D81
:1006700005C026E8230F0296A11DB11D2093380165
:100680008093390190933A01A0933B01B0933C01D0
:1006900080913D0190913E01A0913F01B0914001B8
:1006A0000196A11DB11D80933D0190933E01A09341
:1006B0003F01B0934001BF91AF919F918F913F91C6
:1006C0002F910F900FBE0F901F901895CF93DF932F
:1006D000CDB7DEB7A3970FB6F894DEBF0FBECDBF80
:1006E000789484B5826084BD84B5816084BD85B50D
:1006F000826085BD85B5816085BD80916E00816019
:1007000080936E00109281008091810082608093BE
:1007100081008091810081608093810080918000C0
:100720008160809380008091B10084608093B100EB
:100730008091B00081608093B00080917A008460E5
:1007400080937A0080917A00826080937A00809111
:100750007A00816080937A0080917A00806880932B
:100760007A001092C10082E00E94460262E08AE0B4
:100770000E94080160E08EE00E94080160E08FE0C6
:100780000E940801109232011092370160E080E06F
:100790000E94EC028EE091E00E9408033AE0832E72
:1007A000912CA12CB12C772473940E94B500892B35
:1007B00011F4709232010E94B500892B21F08091D2
:1007C0003201811186C1809100019091010103974E
:1007D00034F081E090E090930101809300018091DA
:1007E0000001909101018130910519F0029789F083
:1007F0000AC061E080E00E94EC028AE191E00E9480
:1008000008031092370124E6E22EF12C00E010E0FC
:1008100014C061E080E00E94EC0280E291E00E945E
:10082000080370923701EFCF8FE00E944401080F58
:10083000191F91E0E91AF10831F080913701811117
:10084000F3CF8EE0F2CFC80164E670E00E945D074E
:10085000072E000C880B990B0E94360620E030E032
:1008600040EA50E40E94EB0620E030E040E85AE322
:100870000E94EB0620E030E048EC52E40E94EB06D8
:100880006B017C01209033013090340140903501A0
:100890005090360120E030E040E05FE3C201B1015A
:1008A0000E9494059B01AC01C701B6010E94E606B7
:1008B000181684F020E030E040E05FE3C201B101AF
:1008C0000E9493059B01AC01C701B6010E9400067E
:1008D00087FFD1C0C0923301D0923401E09235013C
:1008E000F092360161E085E00E94EC02A7019601DA
:1008F000C701B6010E945807882319F086E291E0EB
:100900001AC016012701E89457F82FEF3FEF4FE781
:100910005FE7C201B1010E94580781110FC02FEF9C
:100920003FEF4FE75FE7C201B1010E9400061816D2
:100930002CF48AE291E00E9408039DC02FEF3FEF64
:100940004FE75FE4C701B6010E94E60618161CF4E3
:100950008EE291E0F0CF2FEF3FEF4FE75FECC70162
:10096000B6010E94000687FDF3CF20E030E0A90128
:10097000C701B6010E94000687FF0AC041E06DE290
:1009800081E491E00E94ED01F7FAF094F7F8F09419
:100990002AE037ED43EA5BE3C701B6010E94940504
:1009A0001B012C010E9405066B017C010E9434068C
:1009B0009B01AC01C201B1010E9493051B012C01F6
:1009C00019A28E010F5D1F4F0AA31BA3C701B60119
:1009D000A50194010E94710769017A01605DF80127
:1009E00062938F01232B242B252B81F7CF010E94AB
:1009F000080341E06EE281E491E00E94ED0193E0A2
:100A0000F92EFA94FF20B9F120E030E040E251E401
:100A1000C201B1010E94EB061B012C010E940506D8
:100A20009B0140E050E019A20AA11BA1662EC32E33
:100A3000D42EE52ECA01B901A50194010E947107C7
:100A4000605DF80162938F01211531054105510563
:100A500089F7CF010E940803662D7C2D8D2D9E2DD8
:100A60000E9434069B01AC01C201B1010E949305B2
:100A70001B012C01C6CF0E945B011B012C0184E6E7
:100A8000C82ED12CE12CF12C0E945B01DC01CB01A2
:100A900082199309A409B509883E9340A105B105BF
:100AA00098F3F1E0CF1AD108E108F10828EE220E00
:100AB00023E0321E411C511CC114D104E104F10495
:100AC00019F780E090E0892B09F46FCE0E940000B6
:100AD0006CCE10923201809100019091010101963B
:100AE00090930101809300016ECEE1E4F1E0138266
:100AF000128286E091E09183808382E084838FEF8D
:100B0000858383E0868384E0878385E0808786E031
:100B1000818787E082871386148615861686178656
:100B200081E00C9446025058BB27AA270E94AB05CF
:100B30000C94AC060E949E0638F00E94A50620F098
:100B400039F49F3F19F426F40C949B060EF4E095BB
:100B5000E7FB0C949506E92F0E94BD0658F3BA17DF
:100B6000620773078407950720F079F4A6F50C94C3
:100B7000DF060EF4E0950B2EBA2FA02D0B01B90164
:100B800090010C01CA01A0011124FF27591B99F003
:100B9000593F50F4503E68F11A16F040A22F232F0F
:100BA000342F4427585FF3CF469537952795A7955F
:100BB000F0405395C9F77EF41F16BA0B620B730B06
:100BC000840BBAF09150A1F0FF0FBB1F661F771F77
:100BD000881FC2F70EC0BA0F621F731F841F48F42C
:100BE000879577956795B795F7959E3F08F0B0CFB5
:100BF0009395880F08F09927EE0F9795879508959C
:100C00000E94710608F481E008950E94C50688F0EC
:100C10009F5798F0B92F9927B751B0F0E1F0660FC0
:100C2000771F881F991F1AF0BA95C9F714C0B13001
:100C300091F00E94DF06B1E008950C94DF06672F63
:100C4000782F8827B85F39F0B93FCCF38695779530
:100C50006795B395D9F73EF4909580957095619519
:100C60007F4F8F4F9F4F0895E89409C097FB3EF444
:100C700090958095709561957F4F8F4F9F4F9923E9
:100C8000A9F0F92F96E9BB279395F6958795779567
:100C90006795B795F111F8CFFAF4BB0F11F460FF27
:100CA0001BC06F5F7F4F8F4F9F4F16C0882311F07F
:100CB00096E911C0772321F09EE8872F762F05C093
:100CC000662371F096E8862F70E060E02AF09A952E
:100CD000660F771F881FDAF7880F9695879597F923
:100CE0000895990F0008550FAA0BE0E8FEEF1616BD
:100CF0001706E807F907C0F012161306E407F50710
:100D000098F0621B730B840B950B39F40A2661F083
:100D1000232B242B252B21F408950A2609F4A14026
:100D2000A6958FEF811D811D089597F99F6780E833
:100D300070E060E008959FEF80EC089500240A942D
:100D40001616170618060906089500240A941216A6
:100D50001306140605060895092E0394000C11F4D9
:100D6000882352F0BB0F40F4BF2B11F460FF04C086
:100D70006F5F7F4F8F4F9F4F089557FD9058440FDF
:100D8000551F59F05F3F71F04795880F97FB991FEA
:100D900061F09F3F79F087950895121613061406A7
:100DA000551FF2CF4695F1DF08C016161706180634
:100DB000991FF1CF86957105610508940895E8940F
:100DC000BB2766277727CB0197F908950E94710604
:100DD00008F48FEF08950E94FE060C94AC060E9462
:100DE0009E0638F00E94A50620F0952311F00C9481
:100DF00095060C949B0611240C94E0060E94BD06F7
:100E000070F3959FC1F3950F50E0551F629FF0015D
:100E1000729FBB27F00DB11D639FAA27F00DB11D76
:100E2000AA1F649F6627B00DA11D661F829F2227FF
:100E3000B00DA11D621F739FB00DA11D621F839F86
:100E4000A00D611D221F749F3327A00D611D231F5C
:100E5000849F600D211D822F762F6A2F11249F57AA
:100E600050409AF0F1F088234AF0EE0FFF1FBB1FAD
:100E7000661F771F881F91505040A9F79E3F51056C
:100E800080F00C9495060C94E0065F3FE4F3983EE6
:100E9000D4F3869577956795B795F795E7959F5F16
:100EA000C1F7FE2B880F911D9695879597F90895A8
:100EB0000E947106880B990B089597FB072E16F474
:100EC000009407D077FD09D00E94930707FC05D056
:100ED0003EF4909581959F4F0895709561957F4F51
:100EE0000895A1E21A2EAA1BBB1BFD010DC0AA1F6B
:100EF000BB1FEE1FFF1FA217B307E407F50720F083
:100F0000A21BB30BE40BF50B661F771F881F991FFD
:100F10001A9469F760957095809590959B01AC0146
:100F2000BD01CF010895AA1BBB1B51E107C0AA1F39
:100F3000BB1FA617B70710F0A61BB70B881F991F7A
:100F40005A95A9F780959095BC01CD010895EE0FB3
:100F5000FF1F0590F491E02D099481E090E0F89452
:080F60000C94B207F894FFCFD6
:100F6800010000000000FE0280010503040354652F
:100F78006D706572617475726100496E743A200013
:100F88004578743A20006E616E00696E66006F766F
:020F98006600F1
:00000001FF
