:100000000C945C000C947E010C9457010C947900C4
:100010000C9479000C9479000C9479000C9479007C
:100020000C9479000C9479000C9479000C9479006C
:100030000C9479000C9479000C9479000C9479005C
:100040000C940D010C9479000C9479000C947900B7
:100050000C9479000C9479000C9479000C9479003C
:100060000C9479000C947900000000002400270013
:100070002A0000000000250028002B0004040404CE
:100080000404040402020202020203030303030342
:10009000010204081020408001020408102001021F
:1000A00004081020000000080002010000030407FB
:1000B000000000000000000011241FBECFEFD8E0B8
:1000C000DEBFCDBF11E0A0E0B1E0E4EEF4E002C09D
:1000D00005900D92A630B107D9F721E0A6E0B1E076
:1000E00001C01D92AF30B207E1F70E94A5010C9448
:1000F00070020C940000EAEAF0E09491E6E9F0E086
:100100002491E2E8F0E0E491EE2309F43CC0992365
:1001100039F1933091F038F49130A9F0923001F533
:1001200094B59F7D12C0973091F09830A1F0943033
:10013000B9F4909180009F7D03C0909180009F77DB
:10014000909380000DC094B59F7794BD09C09091A5
:10015000B0009F7703C09091B0009F7D9093B00056
:10016000F0E0EE0FFF1FEE58FF4FA591B4919FB73F
:10017000F894811104C08C912095282302C0EC9141
:100180002E2B2C939FBF0895CF93DF9390E0FC011B
:10019000E057FF4F2491FC01E458FF4F84918823DE
:1001A00061F190E0880F991FFC01E859FF4FC5915C
:1001B000D491FC01EE58FF4FA591B491611109C093
:1001C0009FB7F8948881209582238883EC912E2311
:1001D0000BC0623061F49FB7F8948881322F30955C
:1001E00083238883EC912E2B2C939FBF06C08FB75F
:1001F000F894E8812E2B28838FBFDF91CF9108954B
:1002000080910401865F8093040108958091040128
:100210008A5080930401089508951F920F920FB69B
:100220000F9211242F933F938F939F93AF93BF937C
:1002300080910B0190910C01A0910D01B0910E01E4
:1002400030910A0123E0230F2D3720F40196A11DE0
:10025000B11D05C026E8230F0296A11DB11D2093F4
:100260000A0180930B0190930C01A0930D01B093B0
:100270000E018091060190910701A0910801B091B3
:1002800009010196A11DB11D8093060190930701FC
:10029000A0930801B0930901BF91AF919F918F91F5
:1002A0003F912F910F900FBE0F901F9018951F92A6
:1002B0000F920FB60F9211242F933F934F935F939A
:1002C0006F937F938F939F93AF93BF93EF93FF931E
:1002D000E0910201F09103010995FF91EF91BF9127
:1002E000AF919F918F917F916F915F914F913F91CE
:1002F0002F910F900FBE0F901F9018951F920F9285
:100300000FB60F9211242F933F934F935F936F93E8
:100310007F938F939F93AF93BF93EF93FF93E0915E
:100320000001F09101010995FF91EF91BF91AF910B
:100330009F918F917F916F915F914F913F912F91FD
:100340000F900FBE0F901F901895789484B582601F
:1003500084BD84B5816084BD85B5826085BD85B569
:10036000816085BD80916E00816080936E001092E7
:100370008100809181008260809381008091810062
:1003800081608093810080918000816080938000F3
:100390008091B10084608093B1008091B000816051
:1003A0008093B00080917A00846080937A0080917D
:1003B0007A00826080937A0080917A0081608093D5
:1003C0007A0080917A00806880937A001092C10050
:1003D00060E082E00E94C40060E083E00E94C4000C
:1003E00061E086E00E94C40080E091E0909301010A
:1003F0008093000180916900836080936900E89A8E
:1004000086E091E09093030180930201809169005E
:100410008C6080936900E99A8AEAE82E80E0F82EE1
:1004200090E0C92E90E0D92E10910401C12FD0E0A8
:1004300061E086E00E94C400209711F480E004C0CF
:10044000CF3FD10521F481E00E947B0042C0F7013B
:1004500084918330F9F048F48130B9F08230A1F50D
:1004600084B5806284BD18BD34C08730E9F088301F
:1004700019F1843049F5809180008062809380007A
:10048000D0938B00C0938A0024C084B5806884BD5B
:1004900017BD1FC080918000806880938000D0933A
:1004A0008900C093880015C08091B0008068809357
:1004B000B0001093B3000DC08091B00080628093B3
:1004C000B0001093B40005C0C038D1050CF0BBCF0C
:1004D000B5CFC114D10409F4A7CF0E940000A4CF66
:0404E000F894FFCFBE
:0604E4000C010C01800078
:107E0000112484B714BE81FFF0D085E080938100F7
:107E100082E08093C00088E18093C10086E0809377
:107E2000C20080E18093C4008EE0C9D0259A86E02C
:107E300020E33CEF91E0309385002093840096BBD3
:107E4000B09BFECF1D9AA8958150A9F7CC24DD24C4
:107E500088248394B5E0AB2EA1E19A2EF3E0BF2EE7
:107E6000A2D0813461F49FD0082FAFD0023811F036
:107E7000013811F484E001C083E08DD089C08234E0
:107E800011F484E103C0853419F485E0A6D080C0E4
:107E9000853579F488D0E82EFF2485D0082F10E0AE
:107EA000102F00270E291F29000F111F8ED06801E7
:107EB0006FC0863521F484E090D080E0DECF843638
:107EC00009F040C070D06FD0082F6DD080E0C81688
:107ED00080E7D80618F4F601B7BEE895C0E0D1E017
:107EE00062D089930C17E1F7F0E0CF16F0E7DF06D8
:107EF00018F0F601B7BEE89568D007B600FCFDCFD4
:107F0000A601A0E0B1E02C9130E011968C91119780
:107F100090E0982F8827822B932B1296FA010C0160
:107F200087BEE89511244E5F5F4FF1E0A038BF0790
:107F300051F7F601A7BEE89507B600FCFDCF97BE46
:107F4000E89526C08437B1F42ED02DD0F82E2BD052
:107F50003CD0F601EF2C8F010F5F1F4F84911BD097
:107F6000EA94F801C1F70894C11CD11CFA94CF0C13
:107F7000D11C0EC0853739F428D08EE10CD085E9AC
:107F80000AD08FE07ACF813511F488E018D01DD067
:107F900080E101D065CF982F8091C00085FFFCCF94
:107FA0009093C60008958091C00087FFFCCF809118
:107FB000C00084FD01C0A8958091C6000895E0E648
:107FC000F0E098E1908380830895EDDF803219F02E
:107FD00088E0F5DFFFCF84E1DECF1F93182FE3DFCA
:107FE0001150E9F7F2DF1F91089580E0E8DFEE27F6
:047FF000FF270994CA
:027FFE00040479
:0400000300007E007B
:00000001FF
