:100000000C9461000C9473000C9473000C947300B6
:100010000C9473000C9473000C9473000C94730094
:100020000C9473000C9473000C9473000C94730084
:100030000C9473000C9473000C9473000C94730074
:100040000C94EC000C9473000C9473000C947300EB
:100050000C9473000C9473000C9473000C94730054
:100060000C9473000C94730000000000240027001F
:100070002A0000000000250028002B0000000000DE
:1000800023002600290004040404040404040202DA
:100090000202020203030303030301020408102007
:1000A0004080010204081020010204081020000012
:1000B0000008000201000003040700000000000027
:1000C000000011241FBECFEFD8E0DEBFCDBF21E07E
:1000D000A0E0B1E001C01D92A930B207E1F70E9493
:1000E00036010C9412020C940000833081F028F445
:1000F000813099F08230A1F008958730A9F08830DE
:10010000B9F08430D1F4809180008F7D03C080915C
:1001100080008F7780938000089584B58F7702C028
:1001200084B58F7D84BD08958091B0008F7703C022
:100130008091B0008F7D8093B0000895CF93DF93BE
:10014000282F30E0F901E255FF4F8491F901E6567E
:10015000FF4FD491F901EA57FF4FC491CC2391F09E
:1001600081110E947500EC2FF0E0EE0FFF1FE458A4
:10017000FF4FA591B491EC91ED2381E090E021F443
:1001800080E002C080E090E0DF91CF9108953FB71A
:10019000F8948091050190910601A0910701B0911A
:1001A000080126B5A89B05C02F3F19F00196A11D97
:1001B000B11D3FBFBA2FA92F982F8827820F911DFD
:1001C000A11DB11DBC01CD0142E0660F771F881F44
:1001D000991F4A95D1F708951F920F920FB60F926B
:1001E00011242F933F938F939F93AF93BF9380914D
:1001F000010190910201A0910301B091040130919D
:10020000000123E0230F2D3720F40196A11DB11D1D
:1002100005C026E8230F0296A11DB11D2093000101
:100220008093010190930201A0930301B093040114
:100230008091050190910601A0910701B0910801FC
:100240000196A11DB11D8093050190930601A09315
:100250000701B0930801BF91AF919F918F913F919A
:100260002F910F900FBE0F901F901895789484B522
:10027000826084BD84B5816084BD85B5826085BDA2
:1002800085B5816085BD80916E00816080936E0030
:100290001092810080918100826080938100809122
:1002A00081008160809381008091800081608093D3
:1002B00080008091B10084608093B1008091B00093
:1002C00081608093B00080917A00846080937A008E
:1002D00080917A00826080937A0080917A008160B8
:1002E00080937A0080917A00806880937A001092DF
:1002F000C100EEE9F0E02491EAE8F0E0849188237F
:10030000C1F090E0880F991FFC01E859FF4FC5919B
:10031000D491FC01EE58FF4FA591B4919FB7F8948A
:100320008881E22FE0958E2388838C91E823EC93DB
:100330009FBFC7EAD0E0FE01249103E910E0F80175
:100340008491882399F090E0880F991FFC01E85967
:10035000FF4FA591B491FC01EE58FF4F8591949108
:100360009FB7F8948C91822B8C939FBF2BEB822E9E
:1003700020E0922E30E0A32E30E0B32E84E00E94E5
:100380009E00892B11F18DE00E949E007C01F401FA
:100390008491FE01D490F801C490CC20B1F0811179
:1003A0000E947500EC2DF0E0EE0FFF1FEE58FF4F9E
:1003B000A591B4919FB7F8948C91EF2819F0D0943F
:1003C000D82201C0D82ADC929FBF0E94C7006B01CF
:1003D0007C0184E6482E512C612C712C0E94C700B0
:1003E000DC01CB018C199D09AE09BF09883E934001
:1003F000A105B10598F3F1E04F1A510861087108A1
:1004000028EEC20E23E0D21EE11CF11C411451045F
:100410006104710419F7A114B10409F4AFCF0E946B
:080420000000ACCFF894FFCFFF
:00000001FF
