:100000000C9462000C948A000C948A000C948A0070
:100010000C948A000C948A000C948A000C948A0038
:100020000C948A000C948A000C948A000C9472033D
:100030000C948A000C948A000C948A000C948A0018
:100040000C94D0020C948A000C9440030C941A0374
:100050000C948A000C948A000C948A000C948A00F8
:100060000C948A000C948A000000000023002600F3
:10007000290000000000240027002A0000000000E2
:10008000250028002B0004040404040404040202D4
:100090000202020203030303030301020408102007
:1000A0004080010204081020010204081020000012
:1000B0000008000201000003040700000000000027
:1000C0000000780411241FBECFEFD8E0DEBFCDBF03
:1000D00011E0A0E0B1E0E0EBFEE002C005900D927F
:1000E000A631B107D9F721E0A6E1B1E001C01D9228
:1000F000A93EB207E1F710E0C2E6D0E004C02197C4
:10010000FE010E944B07C136D107C9F70E94D604F1
:100110000C9456070C940000CF92DF92EF92FF925E
:10012000DC01A03282E0B8070CF03EC0B7FD06C08B
:10013000A53BB1052CF0A4EBB0E002C0A0E0B0E01C
:100140008091E70128E830E06901C81AD10887FDED
:10015000D394CC0CDD1CCC0CDD1C0D2C000CEE085B
:10016000FF088091E80128E532E0281B310987FD6E
:100170003395220F331F220F331FA901330F660B54
:10018000770B9A01AB012C193D094E095F090E94BA
:100190009B0624EB30E040E050E00E947106C20E66
:1001A000D31EE41EF51ED6019091E6019C3098F511
:1001B0008091E70148E850E0481B510987FD5395BD
:1001C000440F551F440F551FA417B5078CF080919D
:1001D000E80128E532E0281B310987FD3395220F1D
:1001E000331F220F331FAD012A173B070CF4A9015F
:1001F00042505109440F551F2FB7F894892F90E0B2
:10020000FC01EE0FFF1F8E0F9F1FFC01EF53FE4FEF
:10021000528341832FBFFF90EF90DF90CF900895DE
:1002200090E0FC01E255FF4F2491FC01E656FF4FA0
:100230003491FC01EA57FF4FE491EE2309F43CC0EE
:10024000222339F1233091F038F42130A9F0223003
:1002500001F584B58F7D12C0273091F02830A1F0D0
:100260002430B9F4809180008F7D03C0809180009C
:100270008F77809380000DC084B58F7784BD09C0CF
:100280008091B0008F7703C08091B0008F7D809304
:10029000B000F0E0EE0FFF1FE458FF4FA591B491BE
:1002A0009FB7F894611104C08C913095382302C037
:1002B000EC913E2B3C939FBF0895CF93DF9390E04A
:1002C000FC01E656FF4F2491FC01EA57FF4F849151
:1002D000882361F190E0880F991FFC01EE58FF4FD1
:1002E000C591D491FC01E458FF4FA591B4916111DF
:1002F00009C09FB7F8948881209582238883EC9168
:100300002E230BC0623061F49FB7F8948881322F9E
:10031000309583238883EC912E2B2C939FBF06C0AE
:100320008FB7F894E8812E2B28838FBFDF91CF9170
:1003300008953FB7F8948091200190912101A091F8
:100340002201B091230126B5A89B05C02F3F19F0CB
:100350000196A11DB11D3FBFBA2FA92F982F882745
:10036000820F911DA11DB11DBC01CD0142E0660FA0
:10037000771F881F991F4A95D1F70895CF92DF9272
:10038000EF92FF920F931F93CF93DF936C017A014B
:100390008B01C0E0D0E0CE15DF0581F0D8016D9172
:1003A0008D01D601ED91FC910190F081E02DC60107
:1003B0000995892B11F02196EECF7E01C701DF91BF
:1003C000CF911F910F91FF90EF90DF90CF90089504
:1003D000089580E090E00895FC01538D448D252F11
:1003E00030E0842F90E0821B930B541710F0CF96CF
:1003F000089501970895FC01918D828D981761F001
:10040000828DDF01A80FB11D5D968C91928D9F5F4B
:100410009F73928F90E008958FEF9FEF0895FC01F6
:10042000918D828D981731F0828DE80FF11D858DA9
:1004300090E008958FEF9FEF0895FC01918D228D3C
:10044000892F90E0805C9F4F821B91098F739927C1
:10045000089584E291E00E941D0221E0892B09F4B5
:1004600020E0822F0895FC01848DDF01A80FB11DCB
:10047000A35ABF4F2C91848D90E001968F739927DA
:10048000848FA689B7892C93A089B1898C918370B8
:1004900080648C93938D848D981306C00288F389B1
:1004A000E02D80818F7D80830895EF92FF920F93DE
:1004B0001F93CF93DF93EC0181E0888F9B8D8C8D10
:1004C000981305C0E889F989808185FD26C0F62E3C
:1004D0000B8D10E00F5F1F4F0F731127E02E8C8DD7
:1004E000E8120CC00FB607FCFACFE889F9898081C1
:1004F00085FFF5CFCE010E943302F1CF8B8DFE0137
:10050000E80FF11DE35AFF4FF0829FB7F8940B8F6D
:10051000EA89FB89808180620AC09FB7F894EE89DE
:10052000FF896083E889F989808183708064808392
:100530009FBF81E090E0DF91CF911F910F91FF90DD
:10054000EF900895CF93DF93EC01888D8823C9F055
:10055000EA89FB89808185FD05C0A889B9898C91CC
:1005600086FD0FC00FB607FCF5CF808185FFF2CF67
:10057000A889B9898C9185FFEDCFCE010E94330205
:10058000E7CFDF91CF91089580E090E0892B29F0AB
:100590000E94290281110C94000008950E945107C5
:1005A0001F920F920FB60F9211242F933F938F93A8
:1005B0009F93AF93BF9380911C0190911D01A091D7
:1005C0001E01B0911F0130911B0123E0230F2D3735
:1005D00020F40196A11DB11D05C026E8230F029647
:1005E000A11DB11D20931B0180931C0190931D013F
:1005F000A0931E01B0931F018091200190912101D1
:10060000A0912201B09123010196A11DB11D8093FB
:10061000200190932101A0932201B0932301BF9167
:10062000AF919F918F913F912F910F900FBE0F909F
:100630001F9018951F920F920FB60F9211242F93AF
:100640003F934F935F936F937F938F939F93AF935A
:10065000BF93EF93FF9384E291E00E943302FF91F6
:10066000EF91BF91AF919F918F917F916F915F912A
:100670004F913F912F910F900FBE0F901F901895A3
:100680001F920F920FB60F9211242F938F939F9367
:10069000EF93FF93E0913401F09135018081E09177
:1006A0003A01F0913B0182FD12C0908180913D01A1
:1006B0008F5F8F7320913E01821751F0E0913D01D1
:1006C000F0E0EC5DFE4F958F80933D0101C080818D
:1006D000FF91EF919F918F912F910F900FBE0F90EF
:1006E0001F9018951F920F920FB60F9211242F93FF
:1006F0003F934F935F936F937F938F939F93AF93AA
:10070000BF93EF93FF938091160187FF05C010926E
:100710008500109284001BC020911601022E000C4F
:10072000330B8091E50190E02817390784F480911C
:100730001601082E000C990BFC01EE0FFF1F8E0F07
:100740009F1FFC01EF53FE4F808186FD15C08091F5
:1007500016018F5F8093160120911601022E000C66
:10076000330B8091E50190E028173907C4F480919C
:1007700016018C3064F113C080911601082E000C14
:10078000990BFC01EE0FFF1F8E0F9F1FFC01EF5313
:10079000FE4F808160E08F730E941001D8CF80915E
:1007A000840090918500049680349C4918F480E47C
:1007B0009CE905C0809184009091850004969093F7
:1007C0008900809388008FEF809316013BC02091B1
:1007D00084003091850080911601082E000C990B41
:1007E000FC01EE0FFF1F8E0F9F1FFC01EF53FE4F0A
:1007F00081819281820F931F90938900809388005A
:1008000080911601082E000C990BFC01EE0FFF1FC2
:100810008E0F9F1FFC01EF53FE4F808186FF12C099
:1008200080911601082E000C990BFC01EE0FFF1FA2
:100830008E0F9F1FFC01EF53FE4F808161E08F738D
:100840000E941001FF91EF91BF91AF919F918F9105
:100850007F916F915F914F913F912F910F900FBEBC
:100860000F901F901895CF92DF92EF92FF920F9307
:100870001F93E82FF92F05C00150110921093109F3
:1008800061F1908196239417B9F305C001501109C5
:100890002109310911F1908196239413F7CFC12CCE
:1008A000D12CE12CF12C0AC08FEFC81AD80AE80A23
:1008B000F80A0C151D052E053F0579F08081862369
:1008C000841791F36C2D7D2D8E2D9F2D1F910F91EF
:1008D000FF90EF90DF90CF90089560E070E080E0AF
:1008E00090E01F910F91FF90EF90DF90CF900895CF
:1008F000109227011092260188EE93E0A0E0B0E06C
:100900008093280190932901A0932A01B0932B0191
:1009100084E091E0909325018093240185EC90E0A0
:10092000909331018093300184EC90E090933301F7
:100930008093320180EC90E09093350180933401F4
:1009400081EC90E0909337018093360182EC90E047
:10095000909339018093380186EC90E090933B01AD
:1009600080933A0110923D0110923E0110923F0196
:10097000109240018091E5018C30A0F491E0980F35
:100980009093E5018093E60190E0FC01EE0FFF1FDC
:100990008E0F9F1FFC01EF53FE4F88EB9BE092836D
:1009A000818308958FEF8093E6010895CF93DF93BD
:1009B000CDB7DEB7A1970FB6F894DEBF0FBECDBF9F
:1009C000789484B5826084BD84B5816084BD85B52A
:1009D000826085BD85B5816085BD80916E00816036
:1009E00080936E00109281008091810082608093DC
:1009F00081008091810081608093810080918000DE
:100A00008160809380008091B10084608093B10008
:100A10008091B00081608093B00080917A00846002
:100A200080937A0080917A00826080937A0080912E
:100A30007A00816080937A0080917A008068809348
:100A40007A001092C10061E08DE00E945D0161E0DA
:100A50008CE00E945D0160E082E00E945D01809177
:100A6000E6018C3008F051C061E08CE00E945D012D
:100A70008091E601E82FF0E09F01220F331FE20F83
:100A8000F31FEF53FE4F9081907C9C6090831092F7
:100A9000E7011092E8016CE00E943F072CE0829F82
:100AA000B001112440E050E09B01240F351FF901F3
:100AB000EE0FFF1F2E0F3F1FF901EF53FE4F9081E6
:100AC00096FD16C04F5F5F4F4C30510569F781119D
:100AD0000FC01092800082E0809381001092850008
:100AE00010928400B19A80916F00826080936F00B1
:100AF000E091E601F0E0CF01880F991FE80FF91FA0
:100B0000EF53FE4F808180648083E0913401F09147
:100B1000350182E08083E0913001F0913101108253
:100B2000E0913201F09133018FEC808310923C010F
:100B3000E0913801F091390186E08083E09136013F
:100B4000F0913701808180618083E0913601F091DE
:100B50003701808188608083E0913601F091370110
:100B6000808180688083E0913601F0913701808137
:100B70008F7D80832CE9222E20E0322E3AE0832ED6
:100B8000912CA12CB12CF1016491E8E8F0E0849162
:100B9000E82FF0E0EE0FFF1FE859FF4F8591949189
:100BA00000EC16EC2DE230E0462F0E943304611574
:100BB00071058105910549F0DC01CB010196A11D6C
:100BC000B11D9C01AD015F7003C020E030E0A901C0
:100BD00020931701309318014093190150931A0183
:100BE00019A27E01F1E2EF0EF11CCA01B901A501C3
:100BF00094010E94A306605DF70162937F012115B5
:100C000031054105510589F7309761F001900020C9
:100C1000E9F73197AF014E195F09B70184E291E01E
:100C20000E94BE0142E050E062E171E084E291E0A6
:100C30000E94BE010E9499016B017C0188EE482E42
:100C400083E0582E612C712C0E949901DC01CB01AC
:100C50008C199D09AE09BF09883E9340A105B105D5
:100C600098F3F1E04F1A51086108710828EEC20E9E
:100C700023E0D21EE11CF11C4114510461047104F3
:100C800019F76091170170911801809119019091E5
:100C90001A010E94D9066B017C0120E034E244E78E
:100CA00059E40E943A0718168CF420E03BE147E330
:100CB0005AE4C701B6010E94D40618163CF061E060
:100CC0008DE00E94100184EB90E006C060E08DE0B2
:100CD0000E9410018AE590E00E948C000E94C402EC
:100CE00052CF052E97FB1EF400940E94880657FDF4
:100CF00007D00E94A30607FC03D04EF40C9488068C
:100D000050954095309521953F4F4F4F5F4F089537
:100D100090958095709561957F4F8F4F9F4F089567
:100D20000E94C506A59F900DB49F900DA49F800DB5
:100D3000911D11240895B7FF0C9490060E9490060F
:100D4000821B930B0895A1E21A2EAA1BBB1BFD0167
:100D50000DC0AA1FBB1FEE1FFF1FA217B307E4079A
:100D6000F50720F0A21BB30BE40BF50B661F771FF2
:100D7000881F991F1A9469F76095709580959095D2
:100D80009B01AC01BD01CF010895A29FB001B39FAB
:100D9000C001A39F700D811D1124911DB29F700D84
:100DA000811D1124911D08950E94160708F481E009
:100DB0000895E89409C097FB3EF49095809570954E
:100DC00061957F4F8F4F9F4F9923A9F0F92F96E997
:100DD000BB279395F695879577956795B795F1110C
:100DE000F8CFFAF4BB0F11F460FF1BC06F5F7F4FA9
:100DF0008F4F9F4F16C0882311F096E911C07723BB
:100E000021F09EE8872F762F05C0662371F096E8C3
:100E1000862F70E060E02AF09A95660F771F881F92
:100E2000DAF7880F9695879597F90895990F000836
:100E3000550FAA0BE0E8FEEF16161706E807F907AC
:100E4000C0F012161306E407F50798F0621B730B47
:100E5000840B950B39F40A2661F0232B242B252BC8
:100E600021F408950A2609F4A140A6958FEF811D6B
:100E7000811D08950E94160708F48FEF0895991BAD
:100E800079E004C0991F961708F0961B881F7A9581
:100E9000C9F780950895EE0FFF1F0590F491E02D9E
:100EA000099481E090E0F8940C945607F894FFCFF1
:100EB000000000005502BE01EC01A2021D02FB0170
:060EC0000F020D0A000004
:00000001FF
