:100000000C9458000C9480000C9480000C94800098
:100010000C9480000C9480000C9480000C94800060
:100020000C9480000C9480000C9480000C94800050
:100030000C9480000C9480000C9480000C94800040
:100040000C9435030C9480000C94A5030C947F034E
:100050000C9480000C9480000C9480000C94800020
:100060000C94D7030C9480000000000025002800A9
:100070002B00040404040404040402020202020229
:10008000030303030303010204081020408001025C
:1000900004081020010204081020000000080002DB
:1000A0000100000304070000000000000000050537
:1000B00011241FBECFEFD8E0DEBFCDBF11E0A0E01E
:1000C000B1E0E0E9FCE002C005900D92A832B10772
:1000D000D9F722E0A8E2B1E001C01D92AE36B20726
:1000E000E1F710E0C8E5D0E004C02197FE010E94CE
:1000F0003B06C735D107C9F70E943E050C9446065A
:100100000C94000090E0FC01E656FF4F2491FC01A6
:10011000EA57FF4F3491FC01EE58FF4FE491EE2374
:10012000B1F1222339F1233091F038F42130A9F0D4
:10013000223001F584B58F7D12C0273091F0283030
:10014000A1F02430B9F4809180008F7D03C08091AC
:1001500080008F77809380000DC084B58F7784BD39
:1001600009C08091B0008F7703C08091B0008F7D6F
:100170008093B000F0E0EE0FFF1FE859FF4FA5910C
:10018000B4918FB7F894EC91E32BEC938FBF089563
:100190003FB7F8948091C1019091C201A091C30131
:1001A000B091C40126B5A89B05C02F3F19F0019658
:1001B000A11DB11D3FBFBA2FA92F982F8827820FED
:1001C000911DA11DB11DBC01CD0142E0660F771F3D
:1001D000881F991F4A95D1F708950895CF93DF930B
:1001E000AC01E091BA01F091BB013097F1F0909130
:1001F000B9018091B8019817C0F090E0292F30E044
:100200002617370754F4D901A85DBE4FEA01C20F83
:10021000D31F28812C939F5FF1CF1092B901609377
:10022000B801CB01DF91CF910994DF91CF9108956F
:10023000CF92DF92EF92FF920F931F93CF93DF93B2
:100240006C017A018B01C0E0D0E0CE15DF0581F0B2
:10025000D8016D918D01D601ED91FC910190F08155
:10026000E02DC6010995892B11F02196EECF7E0174
:10027000C701DF91CF911F910F91FF90EF90DF9019
:10028000CF900895FC01538D448D252F30E0842FAD
:1002900090E0821B930B541710F0CF9608950197AE
:1002A0000895FC01918D828D981761F0828DDF0198
:1002B000A80FB11D5D968C91928D9F5F9F73928F59
:1002C00090E008958FEF9FEF0895FC01918D828D4E
:1002D000981731F0828DE80FF11D858D90E008951B
:1002E0008FEF9FEF0895FC01918D228D892F90E073
:1002F000805C9F4F821B91098F739927089585EC2D
:1003000091E00E94730121E0892B09F420E0822F03
:100310000895FC01848DDF01A80FB11DA35ABF4FC2
:100320002C91848D90E001968F739927848FA689F4
:10033000B7892C93A089B1898C91837080648C9348
:10034000938D848D981306C00288F389E02D8081F7
:100350008F7D80830895EF92FF920F931F93CF9329
:10036000DF93EC0181E0888F9B8D8C8D981305C005
:10037000E889F989808185FD26C0F62E0B8D10E075
:100380000F5F1F4F0F731127E02E8C8DE8120CC0EA
:100390000FB607FCFACFE889F989808185FFF5CF90
:1003A000CE010E948901F1CF8B8DFE01E80FF11D76
:1003B000E35AFF4FF0829FB7F8940B8FEA89FB89CD
:1003C000808180620AC09FB7F894EE89FF896083BC
:1003D000E889F98980818370806480839FBF81E090
:1003E00090E0DF91CF911F910F91FF90EF900895D2
:1003F000CF93DF93EC01888D8823C9F0EA89FB89CC
:10040000808185FD05C0A889B9898C9186FD0FC0C2
:100410000FB607FCF5CF808185FFF2CFA889B98997
:100420008C9185FFEDCFCE010E948901E7CFDF914E
:10043000CF91089580E090E0892B29F00E947F0100
:1004400081110C940000089585ED8093BC0080918B
:10045000BC0084FDFCCF1092B50108954091680165
:10046000262F30E0240F311D21323105DCF420919C
:10047000B5012430C9F4FC0180E090E0861758F4FF
:10048000309168012191DC01A85BBE4FA30FB11D23
:100490002C930196F3CF80916801680F60936801F7
:1004A00080E0089581E0089582E008950895E09144
:1004B000B9018091B801E81730F4F0E0E85DFE4F33
:1004C000808190E008958FEF9FEF08959091B9019A
:1004D0008091B801981750F4E92FF0E0E85DFE4FE5
:1004E000208130E09F5F9093B90102C02FEF3FEF72
:1004F000C90108958091B80190E02091B901821B53
:1005000091090895CF93DF93CB01EA01642F0E94F4
:100510002E02CE01DF91CF910895CF93DF931F92EA
:10052000CDB7DEB7698361E0CE0101960E942E024D
:1005300081E090E00F90DF91CF910895089580E0E1
:1005400090E008958F929F92AF92BF920F931F9366
:10055000CF93DF93CDB7DEB7A1970FB6F894DEBF88
:100560000FBECDBF19A2423008F44AE08E010F5DE4
:100570001F4F842E912CA12CB12CA50194010E9417
:100580001906E62FB901CA0101501109EA3014F425
:10059000E05D01C0E95CD801EC93232B242B252BD3
:1005A00061F70115110571F0F80101900020E9F7DC
:1005B0003197AF01401B510BB80185EC91E00E94CF
:1005C000180102C080E090E0A1960FB6F894DEBF5B
:1005D0000FBECDBFDF91CF911F910F91BF90AF9014
:1005E0009F908F9008950E944106CF92DF92EF92E4
:1005F000FF928091B80190E02091B901821B91098E
:10060000029754F082E692E00E946602682F85EC21
:1006100091E00E94AB01EDCF82E692E00E9466027B
:100620006C01990FEE08FF08F7FE0EC06DE285EC35
:1006300091E00E94AB0166277727CB016C197D09F9
:100640008E099F094AE003C04AE0C701B6010E9433
:10065000A20242E050E064E271E085EC91E0FF909C
:10066000EF90DF90CF900C9418011F920F920FB66D
:100670000F9211242F933F938F939F93AF93BF9328
:100680008091BD019091BE01A091BF01B091C001C8
:100690003091BC0123E0230F2D3720F40196A11DDA
:1006A000B11D05C026E8230F0296A11DB11D2093A0
:1006B000BC018093BD019093BE01A093BF01B09394
:1006C000C0018091C1019091C201A091C301B0917C
:1006D000C4010196A11DB11D8093C1019093C20177
:1006E000A093C301B093C401BF91AF919F918F912B
:1006F0003F912F910F900FBE0F901F9018951F9252
:100700000F920FB60F9211242F933F934F935F9345
:100710006F937F938F939F93AF93BF93EF93FF93C9
:1007200085EC91E00E948901FF91EF91BF91AF911B
:100730009F918F917F916F915F914F913F912F91F9
:100740000F900FBE0F901F9018951F920F920FB62B
:100750000F9211242F938F939F93EF93FF93E09128
:10076000D501F091D6018081E091DB01F091DC01AF
:1007700082FD12C090818091DE018F5F8F73209186
:10078000DF01821751F0E091DE01F0E0EB53FE4F04
:10079000958F8093DE0101C08081FF91EF919F9141
:1007A0008F912F910F900FBE0F901F9018951F9251
:1007B0000F920FB60F9211242F933F934F935F9395
:1007C0006F937F938F939F93AF93BF93EF93FF9319
:1007D0008091B900887F803609F49CC068F5883222
:1007E00009F45BC090F4803109F454C038F48823D4
:1007F00009F4F6C0883009F44DC0F6C0883109F418
:100800004CC0803209F45DC0EFC0803409F468C088
:1008100048F4803309F455C0883309F0E5C080936B
:100820008B01D8C0803509F44FC0883509F45DC00C
:10083000883409F0D9C0D6C0883909F4C7C0A8F4F3
:10084000883709F467C038F4883609F463C0803704
:1008500009F460C0C9C0883809F4B8C0803909F407
:100860005FC0803809F0C0C05BC0803B09F486C01F
:1008700038F4803A09F466C0883A09F47FC0B4C0FD
:10088000803C09F4A7C0883C09F4A4C0883B09F463
:100890008AC0AAC08091AE0110C09091AD01809134
:1008A000AC01981770F5E091AD0181E08E0F809357
:1008B000AD01F0E0E457FE4F80818093BB0085ECF2
:1008C00086C080938B018EC0E091AD0181E08E0FD8
:1008D0008093AD018091BB00F0E0E457FE4F808330
:1008E0009091AD018091AC016EC0E091AD0181E0CD
:1008F0008E0F8093AD018091BB00F0E0E457FE4F76
:1009000080838091B40181116DC081E08093B30137
:1009100084EA61C083E08093B50110928A01CFCF51
:1009200080918A01803208F051C0E0918A0181E013
:100930008E0F80938A018091BB00F0E0E659FE4F54
:100940008083BDCF85EC8093BC001092B50180916F
:100950008A01803230F4E0918A01F0E0E659FE4FDE
:10096000108260918A0170E0E091AF01F091B001D6
:100970008AE691E0099510928A0136C084E080935E
:10098000B5011092690110926801E091B101F091F6
:10099000B201099580916801811105C081E08093C1
:1009A000680110924801E091690181E08E0F809307
:1009B0006901F0E0E85BFE4F80818093BB0090917D
:1009C000690180916801981708F479CF85E88093D0
:1009D000BC000AC085EC8093BC001092B50104C035
:1009E00010928B010E942402FF91EF91BF91AF9171
:1009F0009F918F917F916F915F914F913F912F9137
:100A00000F900FBE0F901F901895E5ECF1E0138248
:100A1000128288EE93E0A0E0B0E084839583A68301
:100A2000B78324E031E03183208325EC30E0358743
:100A3000248724EC30E03787268720EC30E0318BA8
:100A4000208B21EC30E0338B228B22EC30E0358B95
:100A5000248B26EC30E0378B268B118E128E138E72
:100A6000148EE2E6F2E01382128284839583A683D9
:100A7000B78386E191E0918380830895789484B56B
:100A8000826084BD84B5816084BD85B5826085BD8A
:100A900085B5816085BD80916E00816080936E0018
:100AA000109281008091810082608093810080910A
:100AB00081008160809381008091800081608093BB
:100AC00080008091B10084608093B1008091B0007B
:100AD00081608093B00080917A00846080937A0076
:100AE00080917A00826080937A0080917A008160A0
:100AF00080937A0080917A00806880937A001092C7
:100B0000C1001092B9011092B8011092B701109271
:100B1000B6011092B50181E08093B4011092B30147
:100B200082E10E94820083E10E9482008091B900EC
:100B30008E7F8093B9008091B9008D7F8093B9003A
:100B400088E48093B80085E48093BC008DEE90E04B
:100B50009093B2018093B1018EEE90E09093B0013A
:100B60008093AF018EE18093BA0085EF92E090937D
:100B7000BB018093BA01E091D501F091D60182E0EA
:100B80008083E091D101F091D2011082E091D301F4
:100B9000F091D4018FEC80831092DD01E091D901B6
:100BA000F091DA0186E08083E091D701F091D801DD
:100BB000808180618083E091D701F091D8018081AC
:100BC00088608083E091D701F091D80180818068AE
:100BD0008083E091D701F091D80180818F7D80835F
:100BE0000E94C8006B017C0184E6882E912CA12C08
:100BF000B12C0E94C800DC01CB018C199D09AE0903
:100C0000BF09883E9340A105B10598F321E0821AFF
:100C10009108A108B10888EEC80E83E0D81EE11C37
:100C2000F11C81149104A104B10419F70E941A0265
:100C3000D7CFA1E21A2EAA1BBB1BFD010DC0AA1F14
:100C4000BB1FEE1FFF1FA217B307E407F50720F035
:100C5000A21BB30BE40BF50B661F771F881F991FB0
:100C60001A9469F760957095809590959B01AC01F9
:100C7000BD01CF010895EE0FFF1F0590F491E02D07
:100C8000099481E090E0F8940C944606F894FFCF24
:100C900000000000AB0118014201F801730151018D
:100CA0006501000000008D0282029F0256027A0256
:080CB000660257020D0A000064
:107E0000112484B714BE81FFF0D085E080938100F7
:107E100082E08093C00088E18093C10086E0809377
:107E2000C20080E18093C4008EE0C9D0259A86E02C
:107E300020E33CEF91E0309385002093840096BBD3
:107E4000B09BFECF1D9AA8958150A9F7CC24DD24C4
:107E500088248394B5E0AB2EA1E19A2EF3E0BF2EE7
:107E6000A2D0813461F49FD0082FAFD0023811F036
:107E7000013811F484E001C083E08DD089C08234E0
:107E800011F484E103C0853419F485E0A6D080C0E4
:107E9000853579F488D0E82EFF2485D0082F10E0AE
:107EA000102F00270E291F29000F111F8ED06801E7
:107EB0006FC0863521F484E090D080E0DECF843638
:107EC00009F040C070D06FD0082F6DD080E0C81688
:107ED00080E7D80618F4F601B7BEE895C0E0D1E017
:107EE00062D089930C17E1F7F0E0CF16F0E7DF06D8
:107EF00018F0F601B7BEE89568D007B600FCFDCFD4
:107F0000A601A0E0B1E02C9130E011968C91119780
:107F100090E0982F8827822B932B1296FA010C0160
:107F200087BEE89511244E5F5F4FF1E0A038BF0790
:107F300051F7F601A7BEE89507B600FCFDCF97BE46
:107F4000E89526C08437B1F42ED02DD0F82E2BD052
:107F50003CD0F601EF2C8F010F5F1F4F84911BD097
:107F6000EA94F801C1F70894C11CD11CFA94CF0C13
:107F7000D11C0EC0853739F428D08EE10CD085E9AC
:107F80000AD08FE07ACF813511F488E018D01DD067
:107F900080E101D065CF982F8091C00085FFFCCF94
:107FA0009093C60008958091C00087FFFCCF809118
:107FB000C00084FD01C0A8958091C6000895E0E648
:107FC000F0E098E1908380830895EDDF803219F02E
:107FD00088E0F5DFFFCF84E1DECF1F93182FE3DFCA
:107FE0001150E9F7F2DF1F91089580E0E8DFEE27F6
:047FF000FF270994CA
:027FFE00040479
:0400000300007E007B
:00000001FF
