:100000000C945C000C946E000C946E000C946E00CA
:100010000C946E000C946E000C946E000C946E00A8
:100020000C946E000C946E000C946E000C946E0098
:100030000C946E000C946E000C946E000C946E0088
:100040000C94D5000C946E000C946E000C946E0011
:100050000C946E000C946E000C946E000C946E0068
:100060000C946E000C946E00000000002400270029
:100070002A0000000000250028002B0004040404CE
:100080000404040402020202020203030303030342
:10009000010204081020408001020408102001021F
:1000A00004081020000000080002010000030407FB
:1000B000000000000000000011241FBECFEFD8E0B8
:1000C000DEBFCDBF21E0A0E0B1E001C01D92AB30AA
:1000D000B207E1F70E941F010C94D7010C940000B5
:1000E000EFEAF0E09491EBE9F0E02491E7E8F0E04A
:1000F000E491EE2309F43CC0992339F1933091F057
:1001000038F49130A9F0923001F594B59F7D12C07A
:10011000973091F09830A1F09430B9F4909180002C
:100120009F7D03C0909180009F77909380000DC0C9
:1001300094B59F7794BD09C09091B0009F7703C09C
:100140009091B0009F7D9093B000F0E0EE0FFF1F04
:10015000EE58FF4FA591B4919FB7F894811104C058
:100160008C912095282302C0EC912E2B2C939FBFBD
:100170000895EBE9F0E02491E7E8F0E0849188232A
:1001800099F090E0880F991FFC01E859FF4FA59165
:10019000B491FC01EE58FF4F859194918FB7F8947C
:1001A000EC91E22BEC938FBF08951F920F920FB644
:1001B0000F9211242F933F938F939F93AF93BF93ED
:1001C0008091070190910801A0910901B0910A0165
:1001D0003091060123E0230F2D3720F40196A11D55
:1001E000B11D05C026E8230F0296A11DB11D209365
:1001F00006018093070190930801A0930901B09331
:100200000A018091020190910301A0910401B09133
:1002100005010196A11DB11D809302019093030178
:10022000A0930401B0930501BF91AF919F918F916D
:100230003F912F910F900FBE0F901F9018957894BB
:1002400084B5826084BD84B5816084BD85B58260DB
:1002500085BD85B5816085BD80916E00816080938C
:100260006E001092810080918100826080938100F5
:100270008091810081608093810080918000816005
:10028000809380008091B10084608093B100809160
:10029000B00081608093B00080917A008460809388
:1002A0007A0080917A00826080937A0080917A004F
:1002B000816080937A0080917A00806880937A00D0
:1002C0001092C1000E94B9008FEAE82E80E0F82E5B
:1002D0000BE11EE4C0910001D0910101CF3FD10597
:1002E0000CF057C00E94B900209711F480E042C082
:1002F000F70184918330F9F048F48130B9F082300D
:10030000A1F584B5806284BDC8BD36C08730E9F0F0
:10031000883019F1843049F58091800080628093A3
:100320008000D0938B00C0938A0026C084B580687B
:1003300084BDC7BD21C0809180008068809380000B
:10034000D0938900C093880017C08091B000806866
:100350008093B000C093B3000FC08091B000806262
:100360008093B000C093B40007C0C038D1050CF42E
:10037000BDCF81E00E947000809100019091010149
:1003800001969093010180930001C8010197F1F754
:10039000A1CF109201011092000181E00E94700033
:1003A000C0E0D0E02097F1F30E940000FBCFF8946A
:0203B000FFCF7D
:00000001FF
