S00E000054696D6572302E73726563E5
S11300000C9434000C9446000C9446000C94460066
S11300100C9446000C9446000C9446000C94460044
S11300200C9446000C9446000C9446000C94460034
S11300300C9446000C9446000C9446000C94460024
S11300400C9448000C9446000C9446000C94460012
S11300500C9446000C9446000C9446000C94460004
S11300600C9446000C94460011241FBECFEFD8E038
S1130070DEBFCDBF21E0A0E0B1E001C01D92A230FF
S1130080B207E1F70E9469000C9474000C9400001C
S11300901F920F920FB60F9211248F939F9380910A
S11300A00001909101010196909301018093000158
S11300B0C19741F49BB181E089278BB9109201016A
S11300C0109200019F918F910F900FBE0F901F907F
S11300D01895F894509A589816BC84E085BD81E030
S10F00E080936E007894FFCFF894FFCF5B
S9030000FC
