:100000000C9461000C9473000C9473000C947300B6
:100010000C9473000C9473000C9473000C94730094
:100020000C9473000C94E8000C9473000C9473000F
:100030000C9473000C9473000C9473000C94730074
:100040000C949E000C9473000C9473000C94730039
:100050000C9473000C9473000C9473000C94730054
:100060000C9473000C947300000000002300260021
:10007000290000000008000201000003040700003E
:1000800000000000000000000000250028002B00F8
:1000900000000000240027002A00040404040404D3
:1000A0000404020202020202030303030303010227
:1000B00004081020408001020408102001020408F6
:1000C000102011241FBECFEFD8E0DEBFCDBF21E04E
:1000D000A0E0B1E001C01D92A930B207E1F70E9493
:1000E00063010C94D3010C940000833081F028F458
:1000F000813099F08230A1F008958730A9F08830DE
:10010000B9F08430D1F4809180008F7D03C080915C
:1001100080008F7780938000089584B58F7702C028
:1001200084B58F7D84BD08958091B0008F7703C022
:100130008091B0008F7D8093B00008951F920F9240
:100140000FB60F9211242F933F938F939F93AF93EA
:10015000BF938091050190910601A0910701B09194
:1001600008013091040123E0230F2D3720F401967C
:10017000A11DB11D05C026E8230F0296A11DB11DCA
:10018000209304018093050190930601A093070139
:10019000B09308018091000190910101A0910201AA
:1001A000B09103010196A11DB11D809300019093B0
:1001B0000101A0930201B0930301BF91AF919F9100
:1001C0008F913F912F910F900FBE0F901F90189518
:1001D0001F920F920FB60F921124CF92DF92EF92DF
:1001E000FF920F931F932F933F934F935F936F93C0
:1001F0007F938F939F93AF93BF93CF93DF93EF93AF
:10020000FF9384E68093B2002CE7C22E20E0D22E2A
:10021000F601849138EBE32E30E0F32EF7010491E0
:10022000C4EAD0E0FE0114911123A1F081110E94D3
:100230007500E12FF0E0EE0FFF1FE859FF4FA59189
:10024000B4918C91802321E090E009F420E0022F0A
:10025000192F02C000E010E0F6018491F701E4904C
:10026000FE01C491CC23B1F081110E947500EC2FE6
:10027000F0E0EE0FFF1FEA57FF4FA591B4919FB733
:10028000F8948C91012B19F0E094E82201C0E82A3F
:10029000EC929FBFFF91EF91DF91CF91BF91AF9112
:1002A0009F918F917F916F915F914F913F912F918E
:1002B0001F910F91FF90EF90DF90CF900F900FBEA6
:1002C0000F901F901895789484B5826084BD84B592
:1002D000816084BD85B5826085BD85B5816085BD41
:1002E00080916E00816080936E00109281008091F9
:1002F0008100826080938100809181008160809381
:100300008100809180008160809380008091B100A5
:1003100084608093B1008091B00081608093B000D0
:1003200080917A00846080937A0080917A00826064
:1003300080937A0080917A00816080937A00809126
:100340007A00806880937A001092C100E8EBF0E0B8
:100350002491E4EAF0E08491882399F090E0880FFA
:10036000991FFC01E057FF4FA591B491FC01EA579A
:10037000FF4F859194918FB7F894EC91E22BEC9319
:100380008FBF1092B00087E08093B10084E6809325
:10039000B20081E080937000C0E0D0E02097F1F3DC
:0A03A0000E940000FBCFF894FFCF8D
:00000001FF
