:100000000C945D000C9485000C9485000C94850084
:100010000C9485000C9485000C9485000C9485004C
:100020000C9485000C9485000C9485000C9485003C
:100030000C9485000C9485000C9485000C9485002C
:100040000C9421030C9485000C9485000C9485007D
:100050000C9485000C9485000C9485000C9485000C
:100060000C9485000C9485000000000024002700FB
:100070002A0000000000250028002B0004040404CE
:100080000404040402020202020203030303030342
:10009000010204081020408001020408102001021F
:1000A00004081020000000080002010000030407FB
:1000B0000000000000000000EF0411241FBECFEF7D
:1000C000D8E0DEBFCDBF11E0A0E0B1E0E0E1FEE0AE
:1000D00002C005900D92A232B107D9F721E0A2E249
:1000E000B1E001C01D92AF34B207E1F710E0CDE5F9
:1000F000D0E004C02197FE010E94FB06CC35D10759
:10010000C9F70E946B030C9406070C94000080E46E
:1001100080937C0080917A00806480937A00809143
:100120007A0086FDFCCF809178002091790090E0E4
:10013000922B089590E0FC01EC55FF4F2491FC01B7
:10014000E057FF4F3491FC01E458FF4FE491EE2358
:1001500009F43CC0222339F1233091F038F42130E6
:10016000A9F0223001F584B58F7D12C0273091F0BF
:100170002830A1F02430B9F4809180008F7D03C035
:10018000809180008F77809380000DC084B58F7739
:1001900084BD09C08091B0008F7703C08091B0000A
:1001A0008F7D8093B000F0E0EE0FFF1FEE58FF4F01
:1001B000A591B4919FB7F894611104C08C913095CA
:1001C000382302C0EC913E2B3C939FBF0895CF9300
:1001D000DF9390E0FC01E057FF4F2491FC01E458CD
:1001E000FF4F8491882361F190E0880F991FFC01F3
:1001F000E859FF4FC591D491FC01EE58FF4FA591EE
:10020000B491611109C09FB7F89488812095822329
:100210008883EC912E230BC0623061F49FB7F89471
:100220008881322F309583238883EC912E2B2C9359
:100230009FBF06C08FB7F894E8812E2B28838FBF0D
:10024000DF91CF9108953FB7F89480913301909159
:100250003401A0913501B091360126B5A89B05C0A7
:100260002F3F19F00196A11DB11D3FBFBA2FA92F35
:10027000982F8827820F911DA11DB11DBC01CD01B2
:1002800042E0660F771F881F991F4A95D1F708959E
:10029000CF92DF92EF92FF920F931F93CF93DF9352
:1002A0006C017A018B01C0E0D0E0CE15DF0581F052
:1002B000D8016D918D01D601ED91FC910190F081F5
:1002C000E02DC6010995892B11F02196EECF7E0114
:1002D000C701DF91CF911F910F91FF90EF90DF90B9
:1002E000CF900895CF93DF93EC0160E08E810E9460
:1002F0009A0061E08E810E949A0060E08E810E94E7
:100300009A008BE891E00197F1F7DF91CF91089582
:10031000CF92DF92EF92FF920F931F93CF93DF93D1
:100320006C017C0187E0E80EF11CC0E0D0E0062FF4
:1003300010E0B8010C2E02C0759567950A94E2F79B
:100340006170F70181917F010E949A002196C4306B
:10035000D10579F7C601DF91CF911F910F91FF90E1
:10036000EF90DF90CF900C947201CF92DF92EF92DA
:10037000FF920F931F93CF93DF93EC01F62E642F20
:100380008C810E949A008D818F3F19F060E00E945D
:100390009A008F850F2D10E084FF25C06E0187E045
:1003A000C80ED11CE12CF12CB8010E2C02C07595A1
:1003B00067950A94E2F76170F60181916F010E94DE
:1003C0009A00FFEFEF1AFF0A88E0E816F10461F7E0
:1003D000CE01DF91CF911F910F91FF90EF90DF90B1
:1003E000CF900C947201B80184E0759567958A9559
:1003F000E1F7CE010E9488016F2DCE01DF91CF91F0
:100400001F910F91FF90EF90DF90CF900C94880197
:1004100040E0682F87E391E00C94B501CF93DF9320
:10042000823028F090914601986090934601809325
:100430004A0110924B0180E480934C0180E180934B
:100440004D0180E580934E0161E080913B010E9467
:10045000E70080913C018F3F19F061E00E94E700C6
:1004600061E080913D010E94E700C7E3D1E09E0179
:10047000275331408091460184FD03C084E090E021
:1004800002C088E090E02196281739072CF461E03B
:100490008E810E94E700EBCF8BE39DE00197F1F79F
:1004A00060E080913B010E949A0060E080913D01F4
:1004B0000E949A0080913C018F3F19F060E00E94F9
:1004C0009A008091460184FD20C063E087E391E0BB
:1004D0000E948801CBE4D6E4CE010197F1F763E0F6
:1004E00087E391E00E9488012197F1F763E087E3B9
:1004F00091E00E94880183E592E00197F1F762E0C4
:1005000087E391E00E94880115C080620E94080282
:100510008BE496E40197F1F78091460180620E9496
:10052000080283E592E00197F1F78091460180622D
:100530000E9408028091460180620E94080284E0C5
:10054000809347018CE00E94080281E00E9408022B
:100550008BE39FE10197F1F782E08093480186E009
:10056000DF91CF910C94080241E00E94B50181E037
:1005700090E00895089580E090E00895009769F074
:10058000FC0101900020E9F73197AF01481B590B9E
:10059000BC0187E391E00C94480180E090E008956D
:1005A0008F929F92AF92BF92CF92DF92EF92FF9283
:1005B000CF93DF93CDB7DEB7A1970FB6F894DEBF28
:1005C0000FBECDBF6B017C0141E06DE287E391E09E
:1005D0000E94B50122273327A9012C193D094E0994
:1005E0005F0919A27E0181E2E80EF11C8AE0882EE3
:1005F000912CA12CB12CCA01B901A50194010E9432
:10060000D906605DF70162937F012115310541052F
:10061000510589F7CF010E94BE020196A1960FB63F
:10062000F894DEBF0FBECDBFDF91CF91FF90EF906A
:10063000DF90CF90BF90AF909F908F9008950E94D1
:1006400001071F920F920FB60F9211242F933F9321
:100650008F939F93AF93BF9380912F01909130011F
:10066000A0913101B091320130912E0123E0230F8E
:100670002D3720F40196A11DB11D05C026E8230FDA
:100680000296A11DB11D20932E0180932F019093FE
:100690003001A0933101B0933201809133019091E8
:1006A0003401A0913501B09136010196A11DB11D13
:1006B0008093330190933401A0933501B0933601B8
:1006C000BF91AF919F918F913F912F910F900FBE4E
:1006D0000F901F901895CF93DF93CDB7DEB7A197FA
:1006E0000FB6F894DEBF0FBECDBF789484B582609C
:1006F00084BD84B5816084BD85B5826085BD85B5C6
:10070000816085BD80916E00816080936E00109243
:1007100081008091810082608093810080918100BE
:10072000816080938100809180008160809380004F
:100730008091B10084608093B1008091B0008160AD
:100740008093B00080917A00846080937A008091D9
:100750007A00826080937A0080917A008160809331
:100760007A0080917A00806880937A001092C100AC
:1007700061E088E00E94E70060E088E00E949A0063
:1007800082E00E940E02E1E080914A018111E0E0E6
:10079000E195F0E0E95CFE4F848980680E940802E0
:1007A0008CE091E00E94BE029AE0892E912CA12C4F
:1007B000B12C20E0222E20E0322E61E088E00E9461
:1007C0009A002FB7F89480912F0190913001A09159
:1007D0003101B09132012FBF80932A0190932B01F8
:1007E000A0932C01B0932D010E948700883892407D
:1007F000DCF32FB7F89480912F0190913001A091F4
:100800003101B09132012FBF40902A0150902B014D
:1008100060902C0170902D01BC01CD016419750907
:10082000860997090E94B50520E030E849E055E4C3
:100830000E940D0520E030E04AE754E40E9448069B
:100840002B013C01609326017093270180932801BE
:100850009093290120E030E040E85FE30E944306E6
:1008600010914A0118169CF5123018F4EFEFE10FC1
:1008700001C0E1E0F0E0E95CFE4F84898B5F8068B5
:100880000E940802C301B2010E947F0597FF03C0C6
:100890000E94D00219C09B01AC0119A23E0181E265
:1008A000680E711CCA01B901A50194010E94D90604
:1008B000605DF30162933F0121153105410551054A
:1008C00089F7CF010E94BE028BE191E044C020E095
:1008D00030E04AE754E4C301B2010E9448062B010C
:1008E0003C01609322017093230180932401909333
:1008F0002501123018F4EFEFE10F01C0E1E0F0E064
:10090000E95CFE4F84898B5F80680E940802C30106
:10091000B2010E947F0597FF03C00E94D00219C058
:100920009B01AC0119A23E01F1E26F0E711CCA01DC
:10093000B901A50194010E94D906605DF30162939B
:100940003F01211531054105510589F7CF010E946D
:10095000BE028EE191E00E94BE0260E088E00E944B
:100960009A0061E089E00E94E70060E089E00E946F
:100970009A000E9487000697E4F760E089E00E94F1
:10098000E7000E9423012B013C018CE2C82EDD24EC
:10099000D394E12CF12C0E942301DC01CB018419BA
:1009A0009509A609B709883E9340A105B10598F3BA
:1009B000F1E0CF1AD108E108F10828EE420E23E059
:1009C000521E611C711CC114D104E104F10419F719
:1009D0002114310409F4F1CE0E940000EECEE7E3C9
:1009E000F1E01382128284E091E09183808382E0BF
:1009F00084838FEF858383E0868384E0878385E02B
:100A0000808786E0818787E0828713861486158633
:100A10001686178681E00C940E020E9421050C9424
:100A200009060E94020658F00E94FB0540F029F4D6
:100A30005F3F29F00C94F20551110C943D060C9483
:100A4000F8050E941A0668F39923B1F3552391F330
:100A5000951B550BBB27AA2762177307840738F02D
:100A60009F5F5F4F220F331F441FAA1FA9F335D08A
:100A70000E2E3AF0E0E832D091505040E695001C3E
:100A8000CAF72BD0FE2F29D0660F771F881FBB1FF8
:100A9000261737074807AB07B0E809F0BB0B802DD6
:100AA000BF01FF2793585F4F3AF09E3F510578F002
:100AB0000C94F2050C943D065F3FE4F3983ED4F3AA
:100AC000869577956795B795F7959F5FC9F7880FD6
:100AD000911D9695879597F90895E1E0660F771F28
:100AE000881FBB1F621773078407BA0720F0621BB9
:100AF000730B840BBA0BEE1F88F7E09508950E94E4
:100B000086056894B1110C943D0608950E94220652
:100B100088F09F5798F0B92F9927B751B0F0E1F0BE
:100B2000660F771F881F991F1AF0BA95C9F714C06E
:100B3000B13091F00E943C06B1E008950C943C065F
:100B4000672F782F8827B85F39F0B93FCCF38695A7
:100B500077956795B395D9F73EF490958095709504
:100B600061957F4F8F4F9F4F0895E89409C097FB81
:100B70003EF490958095709561957F4F8F4F9F4F74
:100B80009923A9F0F92F96E9BB279395F6958795B8
:100B900077956795B795F111F8CFFAF4BB0F11F47B
:100BA00060FF1BC06F5F7F4F8F4F9F4F16C0882322
:100BB00011F096E911C0772321F09EE8872F762F58
:100BC00005C0662371F096E8862F70E060E02AF099
:100BD0009A95660F771F881FDAF7880F9695879585
:100BE00097F9089597F99F6780E870E060E00895AD
:100BF0009FEF80EC089500240A9416161706180635
:100C00000906089500240A94121613061406050610
:100C10000895092E0394000C11F4882352F0BB0FA1
:100C200040F4BF2B11F460FF04C06F5F7F4F8F4F04
:100C30009F4F089557FD9058440F551F59F05F3F3F
:100C400071F04795880F97FB991F61F09F3F79F0EE
:100C500087950895121613061406551FF2CF469570
:100C6000F1DF08C0161617061806991FF1CF8695F2
:100C70007105610508940895E894BB2766277727D6
:100C8000CB0197F908950E94B50608F48FEF0895F7
:100C90000E945B060C9409060E94FB0538F00E9436
:100CA000020620F0952311F00C94F2050C94F8053F
:100CB00011240C943D060E941A0670F3959FC1F30F
:100CC000950F50E0551F629FF001729FBB27F00DFA
:100CD000B11D639FAA27F00DB11DAA1F649F66274F
:100CE000B00DA11D661F829F2227B00DA11D621F9E
:100CF000739FB00DA11D621F839FA00D611D221F58
:100D0000749F3327A00D611D231F849F600D211D3B
:100D1000822F762F6A2F11249F5750409AF0F1F0BE
:100D200088234AF0EE0FFF1FBB1F661F771F881F27
:100D300091505040A9F79E3F510580F00C94F20568
:100D40000C943D065F3FE4F3983ED4F38695779587
:100D50006795B795F795E7959F5FC1F7FE2B880FCD
:100D6000911D9695879597F90895990F0008550F4D
:100D7000AA0BE0E8FEEF16161706E807F907C0F021
:100D800012161306E407F50798F0621B730B840B29
:100D9000950B39F40A2661F0232B242B252B21F403
:100DA00008950A2609F4A140A6958FEF811D811DA3
:100DB0000895A1E21A2EAA1BBB1BFD010DC0AA1F9C
:100DC000BB1FEE1FFF1FA217B307E407F50720F0B4
:100DD000A21BB30BE40BF50B661F771F881F991F2F
:100DE0001A9469F760957095809590959B01AC0178
:100DF000BD01CF010895EE0FFF1F0590F491E02D86
:100E0000099481E090E0F8940C940607F894FFCFE1
:100E100000000000B4024801BB02BA0243617061E5
:100E2000636974616E6369613A20007546006E53B0
:020E30000000C0
:107E0000112484B714BE81FFF0D085E080938100F7
:107E100082E08093C00088E18093C10086E0809377
:107E2000C20080E18093C4008EE0C9D0259A86E02C
:107E300020E33CEF91E0309385002093840096BBD3
:107E4000B09BFECF1D9AA8958150A9F7CC24DD24C4
:107E500088248394B5E0AB2EA1E19A2EF3E0BF2EE7
:107E6000A2D0813461F49FD0082FAFD0023811F036
:107E7000013811F484E001C083E08DD089C08234E0
:107E800011F484E103C0853419F485E0A6D080C0E4
:107E9000853579F488D0E82EFF2485D0082F10E0AE
:107EA000102F00270E291F29000F111F8ED06801E7
:107EB0006FC0863521F484E090D080E0DECF843638
:107EC00009F040C070D06FD0082F6DD080E0C81688
:107ED00080E7D80618F4F601B7BEE895C0E0D1E017
:107EE00062D089930C17E1F7F0E0CF16F0E7DF06D8
:107EF00018F0F601B7BEE89568D007B600FCFDCFD4
:107F0000A601A0E0B1E02C9130E011968C91119780
:107F100090E0982F8827822B932B1296FA010C0160
:107F200087BEE89511244E5F5F4FF1E0A038BF0790
:107F300051F7F601A7BEE89507B600FCFDCF97BE46
:107F4000E89526C08437B1F42ED02DD0F82E2BD052
:107F50003CD0F601EF2C8F010F5F1F4F84911BD097
:107F6000EA94F801C1F70894C11CD11CFA94CF0C13
:107F7000D11C0EC0853739F428D08EE10CD085E9AC
:107F80000AD08FE07ACF813511F488E018D01DD067
:107F900080E101D065CF982F8091C00085FFFCCF94
:107FA0009093C60008958091C00087FFFCCF809118
:107FB000C00084FD01C0A8958091C6000895E0E648
:107FC000F0E098E1908380830895EDDF803219F02E
:107FD00088E0F5DFFFCF84E1DECF1F93182FE3DFCA
:107FE0001150E9F7F2DF1F91089580E0E8DFEE27F6
:047FF000FF270994CA
:027FFE00040479
:0400000300007E007B
:00000001FF
